{
    "contractName": "product",
    "abi": [
        {
            "inputs": [],
            "stateMutability": "nonpayable",
            "type": "constructor"
        },
        {
            "anonymous": false,
            "inputs": [
                {
                    "indexed": false,
                    "internalType": "bytes32",
                    "name": "_id",
                    "type": "bytes32"
                },
                {
                    "indexed": false,
                    "internalType": "bytes32",
                    "name": "_name",
                    "type": "bytes32"
                },
                {
                    "indexed": false,
                    "internalType": "bytes32",
                    "name": "_desc",
                    "type": "bytes32"
                },
                {
                    "indexed": false,
                    "internalType": "address",
                    "name": "_owner",
                    "type": "address"
                }
            ],
            "name": "Log",
            "type": "event"
        },
        {
            "anonymous": false,
            "inputs": [
                {
                    "indexed": true,
                    "internalType": "address",
                    "name": "from",
                    "type": "address"
                },
                {
                    "indexed": true,
                    "internalType": "address",
                    "name": "to",
                    "type": "address"
                },
                {
                    "indexed": false,
                    "internalType": "uint256",
                    "name": "value",
                    "type": "uint256"
                }
            ],
            "name": "Transfer",
            "type": "event"
        },
        {
            "inputs": [
                {
                    "internalType": "address",
                    "name": "user",
                    "type": "address"
                },
                {
                    "internalType": "enum product.Role",
                    "name": "role",
                    "type": "uint8"
                }
            ],
            "name": "assignRole",
            "outputs": [],
            "stateMutability": "nonpayable",
            "type": "function"
        },
        {
            "inputs": [
                {
                    "internalType": "address",
                    "name": "",
                    "type": "address"
                }
            ],
            "name": "balanceOf",
            "outputs": [
                {
                    "internalType": "uint256",
                    "name": "",
                    "type": "uint256"
                }
            ],
            "stateMutability": "view",
            "type": "function"
        },
        {
            "inputs": [
                {
                    "internalType": "bytes32",
                    "name": "_id",
                    "type": "bytes32"
                },
                {
                    "internalType": "bytes32",
                    "name": "_name",
                    "type": "bytes32"
                },
                {
                    "internalType": "bytes32",
                    "name": "_desc",
                    "type": "bytes32"
                },
                {
                    "internalType": "address",
                    "name": "_owner",
                    "type": "address"
                }
            ],
            "name": "createProduct",
            "outputs": [],
            "stateMutability": "nonpayable",
            "type": "function"
        },
        {
            "inputs": [
                {
                    "internalType": "bytes32",
                    "name": "_userid",
                    "type": "bytes32"
                },
                {
                    "internalType": "bytes32",
                    "name": "_name",
                    "type": "bytes32"
                },
                {
                    "internalType": "bytes32",
                    "name": "_password",
                    "type": "bytes32"
                },
                {
                    "internalType": "address",
                    "name": "_walletAddress",
                    "type": "address"
                },
                {
                    "internalType": "enum product.Role",
                    "name": "_role",
                    "type": "uint8"
                }
            ],
            "name": "createUser",
            "outputs": [],
            "stateMutability": "nonpayable",
            "type": "function"
        },
        {
            "inputs": [],
            "name": "getAllProducts",
            "outputs": [
                {
                    "internalType": "bytes32[]",
                    "name": "",
                    "type": "bytes32[]"
                },
                {
                    "internalType": "bytes32[]",
                    "name": "",
                    "type": "bytes32[]"
                },
                {
                    "internalType": "bytes32[]",
                    "name": "",
                    "type": "bytes32[]"
                },
                {
                    "internalType": "address[]",
                    "name": "",
                    "type": "address[]"
                }
            ],
            "stateMutability": "view",
            "type": "function"
        },
        {
            "inputs": [
                {
                    "internalType": "bytes32",
                    "name": "_id",
                    "type": "bytes32"
                }
            ],
            "name": "getProduct",
            "outputs": [
                {
                    "internalType": "bytes32",
                    "name": "",
                    "type": "bytes32"
                },
                {
                    "internalType": "bytes32",
                    "name": "",
                    "type": "bytes32"
                },
                {
                    "internalType": "bytes32",
                    "name": "",
                    "type": "bytes32"
                },
                {
                    "internalType": "address",
                    "name": "",
                    "type": "address"
                }
            ],
            "stateMutability": "view",
            "type": "function"
        },
        {
            "inputs": [
                {
                    "internalType": "bytes32",
                    "name": "",
                    "type": "bytes32"
                }
            ],
            "name": "products",
            "outputs": [
                {
                    "internalType": "bytes32",
                    "name": "id",
                    "type": "bytes32"
                },
                {
                    "internalType": "bytes32",
                    "name": "name",
                    "type": "bytes32"
                },
                {
                    "internalType": "bytes32",
                    "name": "desc",
                    "type": "bytes32"
                },
                {
                    "internalType": "address",
                    "name": "owner",
                    "type": "address"
                }
            ],
            "stateMutability": "view",
            "type": "function"
        },
        {
            "inputs": [],
            "name": "productsCount",
            "outputs": [
                {
                    "internalType": "uint256",
                    "name": "",
                    "type": "uint256"
                }
            ],
            "stateMutability": "view",
            "type": "function"
        },
        {
            "inputs": [
                {
                    "internalType": "address",
                    "name": "",
                    "type": "address"
                }
            ],
            "name": "roles",
            "outputs": [
                {
                    "internalType": "uint8",
                    "name": "",
                    "type": "uint8"
                }
            ],
            "stateMutability": "view",
            "type": "function"
        },
        {
            "inputs": [
                {
                    "internalType": "address",
                    "name": "_to",
                    "type": "address"
                },
                {
                    "internalType": "uint256",
                    "name": "_value",
                    "type": "uint256"
                }
            ],
            "name": "transfer",
            "outputs": [],
            "stateMutability": "nonpayable",
            "type": "function"
        },
        {
            "inputs": [
                {
                    "internalType": "bytes32",
                    "name": "_id",
                    "type": "bytes32"
                },
                {
                    "internalType": "address",
                    "name": "currentOwner",
                    "type": "address"
                },
                {
                    "internalType": "address",
                    "name": "newOwner",
                    "type": "address"
                }
            ],
            "name": "transferOwnership",
            "outputs": [],
            "stateMutability": "nonpayable",
            "type": "function"
        },
        {
            "inputs": [
                {
                    "internalType": "bytes32",
                    "name": "_id",
                    "type": "bytes32"
                },
                {
                    "internalType": "address",
                    "name": "_ownerId",
                    "type": "address"
                }
            ],
            "name": "verifyFakeness",
            "outputs": [
                {
                    "internalType": "bool",
                    "name": "",
                    "type": "bool"
                }
            ],
            "stateMutability": "view",
            "type": "function"
        }
    ],
    "bytecode": "60806040526000805534801561001457600080fd5b50336000908152600460209081526040808320805460ff19169055600290915290206101f49055610d248061004a6000396000f3fe608060405234801561001057600080fd5b50600436106100b45760003560e01c8063790543911161007157806379054391146101ae57806399374642146101ee578063a9059cbb14610223578063ac25c31e14610236578063c463addd14610249578063e0df7bb61461026c57600080fd5b806302ee3a52146100b957806318e7ad18146100da578063232b5fbb146100ef5780633a20e9df14610104578063630a195b1461016d57806370a0823114610180575b600080fd5b6100c1610275565b6040516100d19493929190610a1f565b60405180910390f35b6100ed6100e8366004610ac2565b610492565b005b6100ed6100fd366004610b10565b5050505050565b610144610112366004610b60565b6000908152600360208190526040909120805460018201546002830154929093015490936001600160a01b0390911690565b604080519485526020850193909352918301526001600160a01b031660608201526080016100d1565b6100ed61017b366004610b79565b610605565b6101a061018e366004610bac565b60026020526000908152604090205481565b6040519081526020016100d1565b6101446101bc366004610b60565b60036020819052600091825260409091208054600182015460028301549290930154909291906001600160a01b031684565b6102116101fc366004610bac565b60046020526000908152604090205460ff1681565b60405160ff90911681526020016100d1565b6100ed610231366004610bce565b6106a6565b6100ed610244366004610bf8565b610835565b61025c610257366004610c34565b610927565b60405190151581526020016100d1565b6101a060005481565b6060806060806000805467ffffffffffffffff81111561029757610297610c57565b6040519080825280602002602001820160405280156102c0578160200160208202803683370190505b5090506000805467ffffffffffffffff8111156102df576102df610c57565b604051908082528060200260200182016040528015610308578160200160208202803683370190505b5090506000805467ffffffffffffffff81111561032757610327610c57565b604051908082528060200260200182016040528015610350578160200160208202803683370190505b50905060005b600054811015610429576000600360006001848154811061037957610379610c6d565b90600052602060002001548152602001908152602001600020905080600101548583815181106103ab576103ab610c6d565b60200260200101818152505080600201548483815181106103ce576103ce610c6d565b6020908102919091010152600381015483516001600160a01b03909116908490849081106103fe576103fe610c6d565b6001600160a01b0390921660209283029190910190910152508061042181610c99565b915050610356565b5060018383838380548060200260200160405190810160405280929190818152602001828054801561047a57602002820191906000526020600020905b815481526020019060010190808311610466575b50505050509350965096509650965050505090919293565b60408051858152602081018590529081018390526001600160a01b03821660608201527f175511fee10259751afcd15d9052c51a49a301d725936b6b91a7dad67ae1b9499060800160405180910390a16001600160a01b03811660009081526004602052604090205460ff16156105505760405162461bcd60e51b815260206004820181905260248201527f4f6e6c792061646d696e2063616e2063726561746520612070726f647563742e60448201526064015b60405180910390fd5b6040805160808101825285815260208082018681528284018681526001600160a01b038681166060860190815260008b81526003958690529687209551865592516001808701919091559151600286015591519390920180546001600160a01b0319169390911692909217909155805480820182559082527fb10e2d527612073b26eecdfd717e6a320cf44b4afac2b0732d9fcbe2b7fa0cf601859055805490806105fa83610c99565b919050555050505050565b3360009081526004602052604090205460ff16156106655760405162461bcd60e51b815260206004820152601c60248201527f4f6e6c792061646d696e2063616e2061737369676e20726f6c65732e000000006044820152606401610547565b80600281111561067757610677610cb2565b6001600160a01b03929092166000908152600460205260409020805460ff191660ff9093169290921790915550565b336000908152600260205260409020548111156106fc5760405162461bcd60e51b8152602060048201526014602482015273496e73756666696369656e742062616c616e636560601b6044820152606401610547565b6001600160a01b0382166107445760405162461bcd60e51b815260206004820152600f60248201526e496e76616c6964206164647265737360881b6044820152606401610547565b6001600160a01b0382166000908152600260205260409020546107678282610cc8565b10156107a05760405162461bcd60e51b81526020600482015260086024820152674f766572666c6f7760c01b6044820152606401610547565b33600090815260026020526040812080548392906107bf908490610cdb565b90915550506001600160a01b038216600090815260026020526040812080548392906107ec908490610cc8565b90915550506040518181526001600160a01b0383169033907fddf252ad1be2c89b69c2b068fc378daa952ba7f163c4a11628f55a4df523b3ef9060200160405180910390a35050565b600083815260036020819052604090912001546001600160a01b03838116911614801561088e57503360009081526004602052604090205460ff16158061088e57503360009081526004602052604090205460ff166001145b6108f25760405162461bcd60e51b815260206004820152602f60248201527f496e76616c6964204f776e65722064657461696c73206f7220496e76616c696460448201526e1020baba3437b934bd30ba34b7b71760891b6064820152608401610547565b600092835260036020819052604090932090920180546001600160a01b0319166001600160a01b039093169290921790915550565b600080805b6000548110156109da5784600360006001848154811061094e5761094e610c6d565b90600052602060002001548152602001908152602001600020600001541480156109be5750836001600160a01b0316600360006001848154811061099457610994610c6d565b600091825260208083209091015483528201929092526040019020600301546001600160a01b0316145b156109c857600191505b806109d281610c99565b91505061092c565b5090505b92915050565b600081518084526020808501945080840160005b83811015610a14578151875295820195908201906001016109f8565b509495945050505050565b608081526000610a3260808301876109e4565b602083820381850152610a4582886109e4565b91508382036040850152610a5982876109e4565b8481036060860152855180825282870193509082019060005b81811015610a975784516001600160a01b031683529383019391830191600101610a72565b50909998505050505050505050565b80356001600160a01b0381168114610abd57600080fd5b919050565b60008060008060808587031215610ad857600080fd5b843593506020850135925060408501359150610af660608601610aa6565b905092959194509250565b803560038110610abd57600080fd5b600080600080600060a08688031215610b2857600080fd5b853594506020860135935060408601359250610b4660608701610aa6565b9150610b5460808701610b01565b90509295509295909350565b600060208284031215610b7257600080fd5b5035919050565b60008060408385031215610b8c57600080fd5b610b9583610aa6565b9150610ba360208401610b01565b90509250929050565b600060208284031215610bbe57600080fd5b610bc782610aa6565b9392505050565b60008060408385031215610be157600080fd5b610bea83610aa6565b946020939093013593505050565b600080600060608486031215610c0d57600080fd5b83359250610c1d60208501610aa6565b9150610c2b60408501610aa6565b90509250925092565b60008060408385031215610c4757600080fd5b82359150610ba360208401610aa6565b634e487b7160e01b600052604160045260246000fd5b634e487b7160e01b600052603260045260246000fd5b634e487b7160e01b600052601160045260246000fd5b600060018201610cab57610cab610c83565b5060010190565b634e487b7160e01b600052602160045260246000fd5b808201808211156109de576109de610c83565b818103818111156109de576109de610c8356fea26469706673582212206a0e4b3b44bde91f8e38f08b9fb253a813ee9255c26800171d9e4ebf185f839964736f6c63430008110033",
    "sourcePath": "d:/Projects/realdeal/contracts/Product.sol",
    "compiler": {
        "name": "solc",
        "version": "0.8.17+commit.8df45f5f"
    },
    "functionHashes": {
        "assignRole(address,uint8)": "630a195b",
        "balanceOf(address)": "70a08231",
        "createProduct(bytes32,bytes32,bytes32,address)": "18e7ad18",
        "createUser(bytes32,bytes32,bytes32,address,uint8)": "232b5fbb",
        "getAllProducts()": "02ee3a52",
        "getProduct(bytes32)": "3a20e9df",
        "products(bytes32)": "79054391",
        "productsCount()": "e0df7bb6",
        "roles(address)": "99374642",
        "transfer(address,uint256)": "a9059cbb",
        "transferOwnership(bytes32,address,address)": "ac25c31e",
        "verifyFakeness(bytes32,address)": "c463addd"
    },
    "gasEstimates": {
        "creation": {
            "codeDepositCost": "672800",
            "executionCost": "52172",
            "totalCost": "724972"
        },
        "external": {
            "assignRole(address,uint8)": "infinite",
            "balanceOf(address)": "2630",
            "createProduct(bytes32,bytes32,bytes32,address)": "165955",
            "createUser(bytes32,bytes32,bytes32,address,uint8)": "infinite",
            "getAllProducts()": "infinite",
            "getProduct(bytes32)": "8952",
            "products(bytes32)": "8885",
            "productsCount()": "2405",
            "roles(address)": "2556",
            "transfer(address,uint256)": "infinite",
            "transferOwnership(bytes32,address,address)": "infinite",
            "verifyFakeness(bytes32,address)": "infinite"
        }
    }
}