{
  "contractName": "product",
  "abi": [
    {
      "inputs": [
        {
          "internalType": "bytes32",
          "name": "",
          "type": "bytes32"
        }
      ],
      "name": "vProducts",
      "outputs": [
        {
          "internalType": "bool",
          "name": "",
          "type": "bool"
        }
      ],
      "stateMutability": "view",
      "type": "function",
      "constant": true
    },
    {
      "inputs": [
        {
          "internalType": "bytes32",
          "name": "productId",
          "type": "bytes32"
        },
        {
          "internalType": "bytes32",
          "name": "pOwner",
          "type": "bytes32"
        },
        {
          "internalType": "bytes32",
          "name": "pName",
          "type": "bytes32"
        },
        {
          "internalType": "bytes32",
          "name": "pDesc",
          "type": "bytes32"
        }
      ],
      "name": "registerProduct",
      "outputs": [],
      "stateMutability": "nonpayable",
      "type": "function"
    },
    {
      "inputs": [],
      "name": "viewProducts",
      "outputs": [
        {
          "internalType": "bytes32[]",
          "name": "",
          "type": "bytes32[]"
        },
        {
          "internalType": "bytes32[]",
          "name": "",
          "type": "bytes32[]"
        },
        {
          "internalType": "bytes32[]",
          "name": "",
          "type": "bytes32[]"
        },
        {
          "internalType": "bytes32[]",
          "name": "",
          "type": "bytes32[]"
        }
      ],
      "stateMutability": "view",
      "type": "function",
      "constant": true
    },
    {
      "inputs": [
        {
          "internalType": "bytes32",
          "name": "sProductId",
          "type": "bytes32"
        },
        {
          "internalType": "bytes32",
          "name": "ownerId",
          "type": "bytes32"
        },
        {
          "internalType": "bytes32",
          "name": "buyerId",
          "type": "bytes32"
        }
      ],
      "name": "sellProduct",
      "outputs": [
        {
          "internalType": "bytes32",
          "name": "",
          "type": "bytes32"
        }
      ],
      "stateMutability": "nonpayable",
      "type": "function"
    },
    {
      "inputs": [
        {
          "internalType": "bytes32",
          "name": "vProductId",
          "type": "bytes32"
        },
        {
          "internalType": "bytes32",
          "name": "ownerId",
          "type": "bytes32"
        }
      ],
      "name": "verifyFakeness",
      "outputs": [
        {
          "internalType": "bytes32",
          "name": "",
          "type": "bytes32"
        },
        {
          "internalType": "bytes32",
          "name": "",
          "type": "bytes32"
        },
        {
          "internalType": "bytes32",
          "name": "",
          "type": "bytes32"
        }
      ],
      "stateMutability": "view",
      "type": "function",
      "constant": true
    }
  ],
  "bytecode": "0x608060405234801561001057600080fd5b50610b50806100206000396000f3fe608060405234801561001057600080fd5b50600436106100575760003560e01c806375d7b0271461005c5780637c5ed8531461008c578063860bb3ff146100bc578063ac60488d146100ee578063f9f24da11461010a575b600080fd5b6100766004803603810190610071919061070f565b61012b565b6040516100839190610757565b60405180910390f35b6100a660048036038101906100a19190610772565b61014b565b6040516100b391906107d4565b60405180910390f35b6100d660048036038101906100d191906107ef565b61029c565b6040516100e59392919061082f565b60405180910390f35b61010860048036038101906101039190610866565b61046f565b005b610112610570565b604051610122949392919061098b565b60405180910390f35b60056020528060005260406000206000915054906101000a900460ff1681565b60008060007fffffffffffffffffffffffffffffffffffffffffffffffffffffffffffffffff905060008080549050111561020557600091505b600080549050821080156101995750600081125b156102045785600083815481106101b3576101b26109ec565b5b90600052602060002001541480156101e8575084600183815481106101db576101da6109ec565b5b9060005260206000200154145b156101f1578190505b81806101fc90610a54565b925050610185565b5b6000811261025a578360018281548110610222576102216109ec565b5b90600052602060002001819055507f4f776e657273686970205472616e73666572726564000000000000000000000092505050610295565b6040517f08c379a000000000000000000000000000000000000000000000000000000000815260040161028c90610afa565b60405180910390fd5b9392505050565b600080600080600090506000806000905060008080549050111561030e57600091505b60008054905082101561030d5787600083815481106102e1576102e06109ec565b5b906000526020600020015414156102fa57819050600192505b818061030590610a54565b9250506102bf565b5b60011515831515141561041b5786600182815481106103305761032f6109ec565b5b906000526020600020015414156103ae5760008181548110610355576103546109ec565b5b906000526020600020015460018281548110610374576103736109ec565b5b90600052602060002001547f4f726967696e616c000000000000000000000000000000000000000000000000955095509550505050610468565b600081815481106103c2576103c16109ec565b5b9060005260206000200154600182815481106103e1576103e06109ec565b5b90600052602060002001547f46616b6500000000000000000000000000000000000000000000000000000000955095509550505050610468565b7f4e41000000000000000000000000000000000000000000000000000000000000807f46616b65000000000000000000000000000000000000000000000000000000009550955095505050505b9250925092565b6005600085815260200190815260200160002060009054906101000a900460ff161561049a57600080fd5b60016005600086815260200190815260200160002060006101000a81548160ff021916908315150217905550600084908060018154018082558091505060019003906000526020600020016000909190919091505560018390806001815401808255809150506001900390600052602060002001600090919091909150556002829080600181540180825580915050600190039060005260206000200160009091909190915055600381908060018154018082558091505060019003906000526020600020016000909190919091505550505050565b6060806060806000600260036001838054806020026020016040519081016040528092919081815260200182805480156105c957602002820191906000526020600020905b8154815260200190600101908083116105b5575b505050505093508280548060200260200160405190810160405280929190818152602001828054801561061b57602002820191906000526020600020905b815481526020019060010190808311610607575b505050505092508180548060200260200160405190810160405280929190818152602001828054801561066d57602002820191906000526020600020905b815481526020019060010190808311610659575b50505050509150808054806020026020016040519081016040528092919081815260200182805480156106bf57602002820191906000526020600020905b8154815260200190600101908083116106ab575b50505050509050935093509350935090919293565b600080fd5b6000819050919050565b6106ec816106d9565b81146106f757600080fd5b50565b600081359050610709816106e3565b92915050565b600060208284031215610725576107246106d4565b5b6000610733848285016106fa565b91505092915050565b60008115159050919050565b6107518161073c565b82525050565b600060208201905061076c6000830184610748565b92915050565b60008060006060848603121561078b5761078a6106d4565b5b6000610799868287016106fa565b93505060206107aa868287016106fa565b92505060406107bb868287016106fa565b9150509250925092565b6107ce816106d9565b82525050565b60006020820190506107e960008301846107c5565b92915050565b60008060408385031215610806576108056106d4565b5b6000610814858286016106fa565b9250506020610825858286016106fa565b9150509250929050565b600060608201905061084460008301866107c5565b61085160208301856107c5565b61085e60408301846107c5565b949350505050565b600080600080608085870312156108805761087f6106d4565b5b600061088e878288016106fa565b945050602061089f878288016106fa565b93505060406108b0878288016106fa565b92505060606108c1878288016106fa565b91505092959194509250565b600081519050919050565b600082825260208201905092915050565b6000819050602082019050919050565b610902816106d9565b82525050565b600061091483836108f9565b60208301905092915050565b6000602082019050919050565b6000610938826108cd565b61094281856108d8565b935061094d836108e9565b8060005b8381101561097e5781516109658882610908565b975061097083610920565b925050600181019050610951565b5085935050505092915050565b600060808201905081810360008301526109a5818761092d565b905081810360208301526109b9818661092d565b905081810360408301526109cd818561092d565b905081810360608301526109e1818461092d565b905095945050505050565b7f4e487b7100000000000000000000000000000000000000000000000000000000600052603260045260246000fd5b7f4e487b7100000000000000000000000000000000000000000000000000000000600052601160045260246000fd5b6000819050919050565b6000610a5f82610a4a565b91507fffffffffffffffffffffffffffffffffffffffffffffffffffffffffffffffff821415610a9257610a91610a1b565b5b600182019050919050565b600082825260208201905092915050565b7f496e76616c69642050726f64756374206f72204f776e65722049440000000000600082015250565b6000610ae4601b83610a9d565b9150610aef82610aae565b602082019050919050565b60006020820190508181036000830152610b1381610ad7565b905091905056fea2646970667358221220ca9f31246707c83cb8c5ac3d436665038d27bfc3131cc41e00b9016b04122cfb64736f6c634300080c0033",
  "immutableReferences": {},
  "source": "\ncontract product {\n\n    bytes32[] products;\n    bytes32[] owners;\n    bytes32[] prodName;\n    bytes32[] prodDesc;\n    bytes32[] qr;\n\n    mapping(bytes32 => bool) public vProducts;\n\n    function registerProduct(bytes32 productId, bytes32 pOwner, bytes32 pName, bytes32 pDesc) public{\n\n        require(!vProducts[productId]);\n        vProducts[productId] = true;\n\n        products.push(productId);\n        owners.push(pOwner);\n        prodName.push(pName);\n        prodDesc.push(pDesc);\n\n        // qr.push(qrData);\n                \n    }\n\n\n    function viewProducts () public view returns(bytes32[] memory, bytes32[] memory,bytes32[] memory, bytes32[] memory) {\n        return(products, prodName, prodDesc, owners);\n    }\n\n\n    function sellProduct (bytes32 sProductId,bytes32 ownerId,bytes32 buyerId) public returns(bytes32){\n        uint i;int index = -1;\n\n        if(products.length>0) {\n            for(i=0; i<products.length && index < 0; i++) {\n                if(products[i]==sProductId && owners[i]== ownerId) \n                    index = int(i);\n            }\n        }   \n        if(index >= 0){\n            owners[uint(index)] = buyerId;\n            // pStatus[uint(index)]=\"NA\";\n            return(\"Ownership Transferred\");\n        }else {revert(\"Invalid Product or Owner ID\");}\n    }\n\n    function verifyFakeness(bytes32 vProductId,bytes32 ownerId) public view returns(bytes32,bytes32,bytes32) {\n\n        bool itemFound=false;\n        uint i;\n        uint index=0;\n\n        if(products.length>0) {\n            for(i=0;i<products.length;i++) {\n                if(products[i]==vProductId) {\n                    index=i;\n                    itemFound=true;\n                }\n            }\n        }\n\n        if(itemFound == true) {\n                if(owners[index] == ownerId)\n                    return(products[index],owners[index],\"Original\");\n                else \n                    return (products[index],owners[index],\"Fake\");\n        } else {\n                return(\"NA\",\"NA\",\"Fake\");\n        }\n\n    }\n}\n\n",
  "sourcePath": "D:\\Projects\\realdeal\\contracts\\product.sol",
  "compiler": {
    "name": "solc",
    "version": "0.8.12+commit.f00d7308.Emscripten.clang"
  },
  "schemaVersion": "3.4.11",
  "updatedAt": "2023-01-02T01:27:05.746Z",
  "networkType": "ethereum",
  "devdoc": {
    "kind": "dev",
    "methods": {},
    "version": 1
  },
  "userdoc": {
    "kind": "user",
    "methods": {},
    "version": 1
  }
}