{
  "contractName": "product",
  "abi": [
    {
      "inputs": [
        {
          "internalType": "bytes32",
          "name": "",
          "type": "bytes32"
        }
      ],
      "name": "vProducts",
      "outputs": [
        {
          "internalType": "bool",
          "name": "",
          "type": "bool"
        }
      ],
      "stateMutability": "view",
      "type": "function",
      "constant": true
    },
    {
      "inputs": [
        {
          "internalType": "bytes32",
          "name": "productId",
          "type": "bytes32"
        },
        {
          "internalType": "bytes32",
          "name": "pOwner",
          "type": "bytes32"
        },
        {
          "internalType": "bytes32",
          "name": "pName",
          "type": "bytes32"
        },
        {
          "internalType": "bytes32",
          "name": "pDesc",
          "type": "bytes32"
        }
      ],
      "name": "setProduct",
      "outputs": [],
      "stateMutability": "nonpayable",
      "type": "function"
    },
    {
      "inputs": [],
      "name": "viewProducts",
      "outputs": [
        {
          "internalType": "bytes32[]",
          "name": "",
          "type": "bytes32[]"
        },
        {
          "internalType": "bytes32[]",
          "name": "",
          "type": "bytes32[]"
        },
        {
          "internalType": "bytes32[]",
          "name": "",
          "type": "bytes32[]"
        },
        {
          "internalType": "bytes32[]",
          "name": "",
          "type": "bytes32[]"
        },
        {
          "internalType": "bytes32[]",
          "name": "",
          "type": "bytes32[]"
        }
      ],
      "stateMutability": "view",
      "type": "function",
      "constant": true
    },
    {
      "inputs": [
        {
          "internalType": "bytes32",
          "name": "sProductId",
          "type": "bytes32"
        },
        {
          "internalType": "bytes32",
          "name": "ownerId",
          "type": "bytes32"
        },
        {
          "internalType": "bytes32",
          "name": "buyerId",
          "type": "bytes32"
        }
      ],
      "name": "sellProduct",
      "outputs": [
        {
          "internalType": "bytes32",
          "name": "",
          "type": "bytes32"
        }
      ],
      "stateMutability": "nonpayable",
      "type": "function"
    },
    {
      "inputs": [
        {
          "internalType": "bytes32",
          "name": "vProductId",
          "type": "bytes32"
        }
      ],
      "name": "verifyFakeness",
      "outputs": [
        {
          "internalType": "bytes32",
          "name": "",
          "type": "bytes32"
        },
        {
          "internalType": "bytes32",
          "name": "",
          "type": "bytes32"
        },
        {
          "internalType": "bytes32",
          "name": "",
          "type": "bytes32"
        }
      ],
      "stateMutability": "view",
      "type": "function",
      "constant": true
    }
  ],
  "bytecode": "0x608060405234801561001057600080fd5b50610c28806100206000396000f3fe608060405234801561001057600080fd5b50600436106100575760003560e01c80631af8ecc91461005c57806375d7b0271461008e5780637c5ed853146100be5780639b997b88146100ee578063f9f24da11461010a575b600080fd5b61007660048036038101906100719190610812565b61012c565b6040516100859392919061084e565b60405180910390f35b6100a860048036038101906100a39190610812565b61031f565b6040516100b591906108a0565b60405180910390f35b6100d860048036038101906100d391906108bb565b61033f565b6040516100e5919061090e565b60405180910390f35b61010860048036038101906101039190610929565b6104d3565b005b61011261061a565b604051610123959493929190610a4e565b60405180910390f35b600080600080600090506000806000905060008080549050111561019e57600091505b60008054905082101561019d57866000838154811061017157610170610ac4565b5b9060005260206000200154141561018a57819050600192505b818061019590610b2c565b92505061014f565b5b6001151583151514156102cb577f417661696c61626c650000000000000000000000000000000000000000000000600482815481106101e0576101df610ac4565b5b9060005260206000200154141561025e576000818154811061020557610204610ac4565b5b90600052602060002001546001828154811061022457610223610ac4565b5b90600052602060002001547f4f726967696e616c000000000000000000000000000000000000000000000000955095509550505050610318565b6000818154811061027257610271610ac4565b5b90600052602060002001546001828154811061029157610290610ac4565b5b90600052602060002001547f46616b6500000000000000000000000000000000000000000000000000000000955095509550505050610318565b7f4e41000000000000000000000000000000000000000000000000000000000000807f46616b65000000000000000000000000000000000000000000000000000000009550955095505050505b9193909250565b60056020528060005260406000206000915054906101000a900460ff1681565b60008060007fffffffffffffffffffffffffffffffffffffffffffffffffffffffffffffffff90506000808054905011156103f957600091505b6000805490508210801561038d5750600081125b156103f85785600083815481106103a7576103a6610ac4565b5b90600052602060002001541480156103dc575084600183815481106103cf576103ce610ac4565b5b9060005260206000200154145b156103e5578190505b81806103f090610b2c565b925050610379565b5b6000811261049157836001828154811061041657610415610ac4565b5b90600052602060002001819055507f4e410000000000000000000000000000000000000000000000000000000000006004828154811061045957610458610ac4565b5b90600052602060002001819055507f4f776e657273686970205472616e736665727265640000000000000000000000925050506104cc565b6040517f08c379a00000000000000000000000000000000000000000000000000000000081526004016104c390610bd2565b60405180910390fd5b9392505050565b6005600085815260200190815260200160002060009054906101000a900460ff16156104fe57600080fd5b60016005600086815260200190815260200160002060006101000a81548160ff0219169083151502179055506000849080600181540180825580915050600190039060005260206000200160009091909190915055600183908060018154018082558091505060019003906000526020600020016000909190919091505560028290806001815401808255809150506001900390600052602060002001600090919091909150556003819080600181540180825580915050600190039060005260206000200160009091909190915055600480600181540180825580915050600190039060005260206000200160007f417661696c61626c65000000000000000000000000000000000000000000000090919091505550505050565b6060806060806060600060026003600160048480548060200260200160405190810160405280929190818152602001828054801561067757602002820191906000526020600020905b815481526020019060010190808311610663575b50505050509450838054806020026020016040519081016040528092919081815260200182805480156106c957602002820191906000526020600020905b8154815260200190600101908083116106b5575b505050505093508280548060200260200160405190810160405280929190818152602001828054801561071b57602002820191906000526020600020905b815481526020019060010190808311610707575b505050505092508180548060200260200160405190810160405280929190818152602001828054801561076d57602002820191906000526020600020905b815481526020019060010190808311610759575b50505050509150808054806020026020016040519081016040528092919081815260200182805480156107bf57602002820191906000526020600020905b8154815260200190600101908083116107ab575b50505050509050945094509450945094509091929394565b600080fd5b6000819050919050565b6107ef816107dc565b81146107fa57600080fd5b50565b60008135905061080c816107e6565b92915050565b600060208284031215610828576108276107d7565b5b6000610836848285016107fd565b91505092915050565b610848816107dc565b82525050565b6000606082019050610863600083018661083f565b610870602083018561083f565b61087d604083018461083f565b949350505050565b60008115159050919050565b61089a81610885565b82525050565b60006020820190506108b56000830184610891565b92915050565b6000806000606084860312156108d4576108d36107d7565b5b60006108e2868287016107fd565b93505060206108f3868287016107fd565b9250506040610904868287016107fd565b9150509250925092565b6000602082019050610923600083018461083f565b92915050565b60008060008060808587031215610943576109426107d7565b5b6000610951878288016107fd565b9450506020610962878288016107fd565b9350506040610973878288016107fd565b9250506060610984878288016107fd565b91505092959194509250565b600081519050919050565b600082825260208201905092915050565b6000819050602082019050919050565b6109c5816107dc565b82525050565b60006109d783836109bc565b60208301905092915050565b6000602082019050919050565b60006109fb82610990565b610a05818561099b565b9350610a10836109ac565b8060005b83811015610a41578151610a2888826109cb565b9750610a33836109e3565b925050600181019050610a14565b5085935050505092915050565b600060a0820190508181036000830152610a6881886109f0565b90508181036020830152610a7c81876109f0565b90508181036040830152610a9081866109f0565b90508181036060830152610aa481856109f0565b90508181036080830152610ab881846109f0565b90509695505050505050565b7f4e487b7100000000000000000000000000000000000000000000000000000000600052603260045260246000fd5b7f4e487b7100000000000000000000000000000000000000000000000000000000600052601160045260246000fd5b6000819050919050565b6000610b3782610b22565b91507fffffffffffffffffffffffffffffffffffffffffffffffffffffffffffffffff821415610b6a57610b69610af3565b5b600182019050919050565b600082825260208201905092915050565b7f496e76616c69642050726f64756374206f72204f776e65722049440000000000600082015250565b6000610bbc601b83610b75565b9150610bc782610b86565b602082019050919050565b60006020820190508181036000830152610beb81610baf565b905091905056fea2646970667358221220f1b35744a0b8d124b7f067683cc2a70362379fb741f6265c312aa1e04c03ff6d64736f6c634300080c0033",
  "immutableReferences": {},
  "source": "\ncontract product {\n\n    bytes32[] products;\n    bytes32[] owners;\n    bytes32[] prodName;\n    bytes32[] prodDesc;\n    bytes32[] pStatus;\n\n    mapping(bytes32 => bool) public vProducts;\n\n    function setProduct(bytes32 productId, bytes32 pOwner, bytes32 pName, bytes32 pDesc) public{\n\n        require(!vProducts[productId]);\n        vProducts[productId] = true;\n\n        products.push(productId);\n        owners.push(pOwner);\n        prodName.push(pName);\n        prodDesc.push(pDesc);\n\n        pStatus.push(\"Available\");\n                \n    }\n\n\n    function viewProducts () public view returns(bytes32[] memory, bytes32[] memory,bytes32[] memory, bytes32[] memory,bytes32[] memory) {\n        return(products, prodName, prodDesc, owners, pStatus);\n    }\n\n\n    function sellProduct (bytes32 sProductId,bytes32 ownerId,bytes32 buyerId) public returns(bytes32){\n        uint i;int index = -1;\n\n        if(products.length>0) {\n            for(i=0; i<products.length && index < 0; i++) {\n                if(products[i]==sProductId && owners[i]== ownerId) \n                    index = int(i);\n            }\n        }\n        if(index >= 0){\n            owners[uint(index)] = buyerId;\n            pStatus[uint(index)]=\"NA\";\n            return(\"Ownership Transferred\");\n        }else {revert(\"Invalid Product or Owner ID\");}\n    }\n\n    function verifyFakeness(bytes32 vProductId) public view returns(bytes32,bytes32,bytes32) {\n\n        bool status=false;\n        uint i;\n        uint j=0;\n\n        if(products.length>0) {\n            for(i=0;i<products.length;i++) {\n                if(products[i]==vProductId) {\n                    j=i;\n                    status=true;\n                }\n            }\n        }\n\n        if(status==true) {\n                if(pStatus[j]==\"Available\")\n                    return(products[j],owners[j],\"Original\");\n                else \n                    return (products[j],owners[j],\"Fake\");\n        } else {\n                return(\"NA\",\"NA\",\"Fake\");\n        }\n\n    }\n}\n\n",
  "sourcePath": "D:\\Projects\\fake-product-identification-blockchain-maddy\\fake-product-identification-blockchain-maddy\\contracts\\product.sol",
  "compiler": {
    "name": "solc",
    "version": "0.8.12+commit.f00d7308.Emscripten.clang"
  },
  "schemaVersion": "3.4.11",
  "updatedAt": "2022-12-29T01:55:33.743Z",
  "networkType": "ethereum",
  "devdoc": {
    "kind": "dev",
    "methods": {},
    "version": 1
  },
  "userdoc": {
    "kind": "user",
    "methods": {},
    "version": 1
  }
}