{
  "contractName": "product",
  "abi": [
    {
      "inputs": [],
      "stateMutability": "nonpayable",
      "type": "constructor"
    },
    {
      "inputs": [
        {
          "internalType": "bytes32",
          "name": "",
          "type": "bytes32"
        }
      ],
      "name": "products",
      "outputs": [
        {
          "internalType": "bytes32",
          "name": "id",
          "type": "bytes32"
        },
        {
          "internalType": "bytes32",
          "name": "name",
          "type": "bytes32"
        },
        {
          "internalType": "bytes32",
          "name": "desc",
          "type": "bytes32"
        },
        {
          "internalType": "address",
          "name": "owner",
          "type": "address"
        }
      ],
      "stateMutability": "view",
      "type": "function",
      "constant": true
    },
    {
      "inputs": [],
      "name": "productsCount",
      "outputs": [
        {
          "internalType": "uint256",
          "name": "",
          "type": "uint256"
        }
      ],
      "stateMutability": "view",
      "type": "function",
      "constant": true
    },
    {
      "inputs": [
        {
          "internalType": "address",
          "name": "",
          "type": "address"
        }
      ],
      "name": "roles",
      "outputs": [
        {
          "internalType": "uint8",
          "name": "",
          "type": "uint8"
        }
      ],
      "stateMutability": "view",
      "type": "function",
      "constant": true
    },
    {
      "inputs": [
        {
          "internalType": "bytes32",
          "name": "_id",
          "type": "bytes32"
        },
        {
          "internalType": "bytes32",
          "name": "_name",
          "type": "bytes32"
        },
        {
          "internalType": "bytes32",
          "name": "_desc",
          "type": "bytes32"
        },
        {
          "internalType": "address",
          "name": "_owner",
          "type": "address"
        }
      ],
      "name": "createProduct",
      "outputs": [],
      "stateMutability": "nonpayable",
      "type": "function"
    },
    {
      "inputs": [],
      "name": "getAllProducts",
      "outputs": [
        {
          "internalType": "bytes32[]",
          "name": "",
          "type": "bytes32[]"
        },
        {
          "internalType": "bytes32[]",
          "name": "",
          "type": "bytes32[]"
        },
        {
          "internalType": "bytes32[]",
          "name": "",
          "type": "bytes32[]"
        },
        {
          "internalType": "address[]",
          "name": "",
          "type": "address[]"
        }
      ],
      "stateMutability": "view",
      "type": "function",
      "constant": true
    },
    {
      "inputs": [
        {
          "internalType": "bytes32",
          "name": "_id",
          "type": "bytes32"
        }
      ],
      "name": "getProduct",
      "outputs": [
        {
          "internalType": "bytes32",
          "name": "",
          "type": "bytes32"
        },
        {
          "internalType": "bytes32",
          "name": "",
          "type": "bytes32"
        },
        {
          "internalType": "bytes32",
          "name": "",
          "type": "bytes32"
        },
        {
          "internalType": "address",
          "name": "",
          "type": "address"
        }
      ],
      "stateMutability": "view",
      "type": "function",
      "constant": true
    },
    {
      "inputs": [
        {
          "internalType": "bytes32",
          "name": "_id",
          "type": "bytes32"
        },
        {
          "internalType": "address",
          "name": "_ownerId",
          "type": "address"
        }
      ],
      "name": "verifyFakeness",
      "outputs": [
        {
          "internalType": "bool",
          "name": "",
          "type": "bool"
        }
      ],
      "stateMutability": "view",
      "type": "function",
      "constant": true
    },
    {
      "inputs": [
        {
          "internalType": "bytes32",
          "name": "_id",
          "type": "bytes32"
        },
        {
          "internalType": "address",
          "name": "currentOwner",
          "type": "address"
        },
        {
          "internalType": "address",
          "name": "newOwner",
          "type": "address"
        }
      ],
      "name": "transferOwnership",
      "outputs": [],
      "stateMutability": "nonpayable",
      "type": "function"
    },
    {
      "inputs": [
        {
          "internalType": "address",
          "name": "user",
          "type": "address"
        },
        {
          "internalType": "enum product.Role",
          "name": "role",
          "type": "uint8"
        }
      ],
      "name": "assignRole",
      "outputs": [],
      "stateMutability": "nonpayable",
      "type": "function"
    }
  ],
  "bytecode": "0x60806040526000805534801561001457600080fd5b506000600281111561002957610028610085565b5b600360003373ffffffffffffffffffffffffffffffffffffffff1673ffffffffffffffffffffffffffffffffffffffff16815260200190815260200160002060006101000a81548160ff021916908360ff1602179055506100b4565b7f4e487b7100000000000000000000000000000000000000000000000000000000600052602160045260246000fd5b6112a8806100c36000396000f3fe608060405234801561001057600080fd5b50600436106100935760003560e01c8063790543911161006657806379054391146101245780639937464214610157578063ac25c31e14610187578063c463addd146101a3578063e0df7bb6146101d357610093565b806302ee3a521461009857806318e7ad18146100b95780633a20e9df146100d5578063630a195b14610108575b600080fd5b6100a06101f1565b6040516100b09493929190610c78565b60405180910390f35b6100d360048036038101906100ce9190610d36565b61045a565b005b6100ef60048036038101906100ea9190610d9d565b6105f9565b6040516100ff9493929190610de8565b60405180910390f35b610122600480360381019061011d9190610e52565b61065a565b005b61013e60048036038101906101399190610d9d565b61076f565b60405161014e9493929190610de8565b60405180910390f35b610171600480360381019061016c9190610e92565b6107bf565b60405161017e9190610edb565b60405180910390f35b6101a1600480360381019061019c9190610ef6565b6107df565b005b6101bd60048036038101906101b89190610f49565b6109bc565b6040516101ca9190610fa4565b60405180910390f35b6101db610aba565b6040516101e89190610fd8565b60405180910390f35b6060806060806000805467ffffffffffffffff81111561021457610213610ff3565b5b6040519080825280602002602001820160405280156102425781602001602082028036833780820191505090505b5090506000805467ffffffffffffffff81111561026257610261610ff3565b5b6040519080825280602002602001820160405280156102905781602001602082028036833780820191505090505b5090506000805467ffffffffffffffff8111156102b0576102af610ff3565b5b6040519080825280602002602001820160405280156102de5781602001602082028036833780820191505090505b50905060005b6000548110156103f1576000600260006001848154811061030857610307611022565b5b906000526020600020015481526020019081526020016000209050806001015485838151811061033b5761033a611022565b5b602002602001018181525050806002015484838151811061035f5761035e611022565b5b6020026020010181815250508060030160009054906101000a900473ffffffffffffffffffffffffffffffffffffffff168383815181106103a3576103a2611022565b5b602002602001019073ffffffffffffffffffffffffffffffffffffffff16908173ffffffffffffffffffffffffffffffffffffffff16815250505080806103e990611080565b9150506102e4565b5060018383838380548060200260200160405190810160405280929190818152602001828054801561044257602002820191906000526020600020905b81548152602001906001019080831161042e575b50505050509350965096509650965050505090919293565b6000600281111561046e5761046d6110c8565b5b60ff16600360003373ffffffffffffffffffffffffffffffffffffffff1673ffffffffffffffffffffffffffffffffffffffff16815260200190815260200160002060009054906101000a900460ff1660ff1614610501576040517f08c379a00000000000000000000000000000000000000000000000000000000081526004016104f890611154565b60405180910390fd5b60405180608001604052808581526020018481526020018381526020018273ffffffffffffffffffffffffffffffffffffffff168152506002600086815260200190815260200160002060008201518160000155602082015181600101556040820151816002015560608201518160030160006101000a81548173ffffffffffffffffffffffffffffffffffffffff021916908373ffffffffffffffffffffffffffffffffffffffff16021790555090505060018490806001815401808255809150506001900390600052602060002001600090919091909150556000808154809291906105ee90611080565b919050555050505050565b60008060008060006002600087815260200190815260200160002090508060000154816001015482600201548360030160009054906101000a900473ffffffffffffffffffffffffffffffffffffffff169450945094509450509193509193565b6000600281111561066e5761066d6110c8565b5b60ff16600360003373ffffffffffffffffffffffffffffffffffffffff1673ffffffffffffffffffffffffffffffffffffffff16815260200190815260200160002060009054906101000a900460ff1660ff1614610701576040517f08c379a00000000000000000000000000000000000000000000000000000000081526004016106f8906111c0565b60405180910390fd5b806002811115610714576107136110c8565b5b600360008473ffffffffffffffffffffffffffffffffffffffff1673ffffffffffffffffffffffffffffffffffffffff16815260200190815260200160002060006101000a81548160ff021916908360ff1602179055505050565b60026020528060005260406000206000915090508060000154908060010154908060020154908060030160009054906101000a900473ffffffffffffffffffffffffffffffffffffffff16905084565b60036020528060005260406000206000915054906101000a900460ff1681565b8173ffffffffffffffffffffffffffffffffffffffff166002600085815260200190815260200160002060030160009054906101000a900473ffffffffffffffffffffffffffffffffffffffff1673ffffffffffffffffffffffffffffffffffffffff1614801561092357506000600281111561085f5761085e6110c8565b5b60ff16600360003373ffffffffffffffffffffffffffffffffffffffff1673ffffffffffffffffffffffffffffffffffffffff16815260200190815260200160002060009054906101000a900460ff1660ff1614806109225750600160028111156108cd576108cc6110c8565b5b60ff16600360003373ffffffffffffffffffffffffffffffffffffffff1673ffffffffffffffffffffffffffffffffffffffff16815260200190815260200160002060009054906101000a900460ff1660ff16145b5b610962576040517f08c379a000000000000000000000000000000000000000000000000000000000815260040161095990611252565b60405180910390fd5b806002600085815260200190815260200160002060030160006101000a81548173ffffffffffffffffffffffffffffffffffffffff021916908373ffffffffffffffffffffffffffffffffffffffff160217905550505050565b6000806000905060005b600054811015610aaf578460026000600184815481106109e9576109e8611022565b5b9060005260206000200154815260200190815260200160002060000154148015610a9257508373ffffffffffffffffffffffffffffffffffffffff166002600060018481548110610a3d57610a3c611022565b5b9060005260206000200154815260200190815260200160002060030160009054906101000a900473ffffffffffffffffffffffffffffffffffffffff1673ffffffffffffffffffffffffffffffffffffffff16145b15610a9c57600191505b8080610aa790611080565b9150506109c6565b508091505092915050565b60005481565b600081519050919050565b600082825260208201905092915050565b6000819050602082019050919050565b6000819050919050565b610aff81610aec565b82525050565b6000610b118383610af6565b60208301905092915050565b6000602082019050919050565b6000610b3582610ac0565b610b3f8185610acb565b9350610b4a83610adc565b8060005b83811015610b7b578151610b628882610b05565b9750610b6d83610b1d565b925050600181019050610b4e565b5085935050505092915050565b600081519050919050565b600082825260208201905092915050565b6000819050602082019050919050565b600073ffffffffffffffffffffffffffffffffffffffff82169050919050565b6000610bdf82610bb4565b9050919050565b610bef81610bd4565b82525050565b6000610c018383610be6565b60208301905092915050565b6000602082019050919050565b6000610c2582610b88565b610c2f8185610b93565b9350610c3a83610ba4565b8060005b83811015610c6b578151610c528882610bf5565b9750610c5d83610c0d565b925050600181019050610c3e565b5085935050505092915050565b60006080820190508181036000830152610c928187610b2a565b90508181036020830152610ca68186610b2a565b90508181036040830152610cba8185610b2a565b90508181036060830152610cce8184610c1a565b905095945050505050565b600080fd5b610ce781610aec565b8114610cf257600080fd5b50565b600081359050610d0481610cde565b92915050565b610d1381610bd4565b8114610d1e57600080fd5b50565b600081359050610d3081610d0a565b92915050565b60008060008060808587031215610d5057610d4f610cd9565b5b6000610d5e87828801610cf5565b9450506020610d6f87828801610cf5565b9350506040610d8087828801610cf5565b9250506060610d9187828801610d21565b91505092959194509250565b600060208284031215610db357610db2610cd9565b5b6000610dc184828501610cf5565b91505092915050565b610dd381610aec565b82525050565b610de281610bd4565b82525050565b6000608082019050610dfd6000830187610dca565b610e0a6020830186610dca565b610e176040830185610dca565b610e246060830184610dd9565b95945050505050565b60038110610e3a57600080fd5b50565b600081359050610e4c81610e2d565b92915050565b60008060408385031215610e6957610e68610cd9565b5b6000610e7785828601610d21565b9250506020610e8885828601610e3d565b9150509250929050565b600060208284031215610ea857610ea7610cd9565b5b6000610eb684828501610d21565b91505092915050565b600060ff82169050919050565b610ed581610ebf565b82525050565b6000602082019050610ef06000830184610ecc565b92915050565b600080600060608486031215610f0f57610f0e610cd9565b5b6000610f1d86828701610cf5565b9350506020610f2e86828701610d21565b9250506040610f3f86828701610d21565b9150509250925092565b60008060408385031215610f6057610f5f610cd9565b5b6000610f6e85828601610cf5565b9250506020610f7f85828601610d21565b9150509250929050565b60008115159050919050565b610f9e81610f89565b82525050565b6000602082019050610fb96000830184610f95565b92915050565b6000819050919050565b610fd281610fbf565b82525050565b6000602082019050610fed6000830184610fc9565b92915050565b7f4e487b7100000000000000000000000000000000000000000000000000000000600052604160045260246000fd5b7f4e487b7100000000000000000000000000000000000000000000000000000000600052603260045260246000fd5b7f4e487b7100000000000000000000000000000000000000000000000000000000600052601160045260246000fd5b600061108b82610fbf565b91507fffffffffffffffffffffffffffffffffffffffffffffffffffffffffffffffff82036110bd576110bc611051565b5b600182019050919050565b7f4e487b7100000000000000000000000000000000000000000000000000000000600052602160045260246000fd5b600082825260208201905092915050565b7f4f6e6c792061646d696e2063616e2063726561746520612070726f647563742e600082015250565b600061113e6020836110f7565b915061114982611108565b602082019050919050565b6000602082019050818103600083015261116d81611131565b9050919050565b7f4f6e6c792061646d696e2063616e2061737369676e20726f6c65732e00000000600082015250565b60006111aa601c836110f7565b91506111b582611174565b602082019050919050565b600060208201905081810360008301526111d98161119d565b9050919050565b7f496e76616c6964204f776e65722064657461696c73206f7220496e76616c696460008201527f20417574686f72697a6174696f6e2e0000000000000000000000000000000000602082015250565b600061123c602f836110f7565b9150611247826111e0565b604082019050919050565b6000602082019050818103600083015261126b8161122f565b905091905056fea26469706673582212203d2f38fbf7523962d33385702a8ce88745ed0d96f028421bc5d4c113df0ade5264736f6c63430008110033",
  "immutableReferences": {},
  "source": "pragma solidity ^0.8.17;\r\n\r\ncontract product {\r\n\r\n    struct ProductStruct {\r\n        bytes32 id;\r\n        bytes32 name;\r\n        bytes32 desc;\r\n        address owner;\r\n    }\r\n\r\n    uint public productsCount  = 0;\r\n    bytes32[] productIds;\r\n\r\n\r\n    struct OwnershipHistory {\r\n        address previousOwner;\r\n        address newOwner;\r\n        uint timestamp;\r\n        // bytes32 transactionHash;\r\n        uint blockNumber;\r\n    }\r\n\r\n    mapping(bytes32 => ProductStruct) public products;\r\n    // OwnershipHistory[] public ownershipHistory;\r\n    mapping(address => uint8) public roles;\r\n    enum Role { ADMIN, SELLER, USER }\r\n\r\n    constructor() {\r\n        // Assign the admin role to the address that deploys the contract\r\n        roles[msg.sender] = uint8(Role.ADMIN);\r\n    }\r\n\r\n    function createProduct(bytes32 _id, bytes32 _name, bytes32 _desc, address _owner) public {\r\n        require(roles[msg.sender] == uint8(Role.ADMIN), \"Only admin can create a product.\");\r\n        products[_id] = ProductStruct(_id, _name, _desc, _owner);\r\n        productIds.push(_id);\r\n        productsCount++;\r\n    }\r\n\r\n    function getAllProducts() public view returns ( bytes32[] memory,bytes32[] memory, bytes32[] memory, address[] memory) {\r\n            bytes32[] memory names = new bytes32[](productsCount);\r\n    bytes32[] memory descriptions = new bytes32[](productsCount);\r\n    address[] memory ownerIds = new address[](productsCount);\r\n\r\n\r\n        for(uint i = 0; i < productsCount; i++) {\r\n            ProductStruct storage prod = products[productIds[i]];\r\n            names[i] = prod.name;\r\n            descriptions[i] = prod.desc;\r\n            ownerIds[i] = prod.owner;\r\n        }\r\n        return (productIds,names,descriptions,ownerIds);\r\n    }\r\n\r\n\r\n    function getProduct(bytes32 _id) public view returns (bytes32, bytes32, bytes32, address) {\r\n        ProductStruct storage Prod = products[_id];\r\n        return (Prod.id, Prod.name, Prod.desc, Prod.owner);\r\n    }\r\n\r\n    function verifyFakeness(bytes32 _id, address _ownerId) public view returns (bool) {\r\n        bool flag = false;\r\n        for(uint i =0; i < productsCount ; i ++){\r\n            if( products[productIds[i]].id == _id &&  products[productIds[i]].owner == _ownerId){\r\n               flag = true;\r\n            }\r\n        }\r\n        return flag ;\r\n    }\r\n\r\n    function transferOwnership(bytes32 _id, address currentOwner, address newOwner) public {\r\n        require(products[_id].owner == currentOwner && (roles[msg.sender] == uint8(Role.ADMIN) || roles[msg.sender] == uint8(Role.SELLER) ), \"Invalid Owner details or Invalid Authorization.\");\r\n        // OwnershipHistory memory ownershipChange = OwnershipHistory(products[_id].owner, newOwner, block.timestamp, block.number);\r\n        // ownershipHistory.push(ownershipChange);\r\n        products[_id].owner = newOwner;\r\n    }\r\n\r\n\r\n    function assignRole(address user, Role role) public {\r\n        require(roles[msg.sender] == uint8(Role.ADMIN), \"Only admin can assign roles.\");\r\n        roles[user] = uint8(role);\r\n    }\r\n}",
  "sourcePath": "D:\\Projects\\realdeal\\contracts\\Product.sol",
  "compiler": {
    "name": "solc",
    "version": "0.8.17+commit.8df45f5f.Emscripten.clang"
  },
  "schemaVersion": "3.4.11",
  "updatedAt": "2023-01-27T16:48:44.752Z",
  "networkType": "ethereum",
  "devdoc": {
    "kind": "dev",
    "methods": {},
    "version": 1
  },
  "userdoc": {
    "kind": "user",
    "methods": {},
    "version": 1
  }
}