{
  "contractName": "product",
  "abi": [
    {
      "inputs": [],
      "stateMutability": "nonpayable",
      "type": "constructor"
    },
    {
      "anonymous": false,
      "inputs": [
        {
          "indexed": false,
          "internalType": "bytes32",
          "name": "_id",
          "type": "bytes32"
        },
        {
          "indexed": false,
          "internalType": "bytes32",
          "name": "_name",
          "type": "bytes32"
        },
        {
          "indexed": false,
          "internalType": "bytes32",
          "name": "_desc",
          "type": "bytes32"
        },
        {
          "indexed": false,
          "internalType": "address",
          "name": "_owner",
          "type": "address"
        }
      ],
      "name": "Log",
      "type": "event"
    },
    {
      "inputs": [
        {
          "internalType": "bytes32",
          "name": "",
          "type": "bytes32"
        }
      ],
      "name": "products",
      "outputs": [
        {
          "internalType": "bytes32",
          "name": "id",
          "type": "bytes32"
        },
        {
          "internalType": "bytes32",
          "name": "name",
          "type": "bytes32"
        },
        {
          "internalType": "bytes32",
          "name": "desc",
          "type": "bytes32"
        },
        {
          "internalType": "address",
          "name": "owner",
          "type": "address"
        }
      ],
      "stateMutability": "view",
      "type": "function",
      "constant": true
    },
    {
      "inputs": [],
      "name": "productsCount",
      "outputs": [
        {
          "internalType": "uint256",
          "name": "",
          "type": "uint256"
        }
      ],
      "stateMutability": "view",
      "type": "function",
      "constant": true
    },
    {
      "inputs": [
        {
          "internalType": "address",
          "name": "",
          "type": "address"
        }
      ],
      "name": "roles",
      "outputs": [
        {
          "internalType": "uint8",
          "name": "",
          "type": "uint8"
        }
      ],
      "stateMutability": "view",
      "type": "function",
      "constant": true
    },
    {
      "inputs": [
        {
          "internalType": "bytes32",
          "name": "_id",
          "type": "bytes32"
        },
        {
          "internalType": "bytes32",
          "name": "_name",
          "type": "bytes32"
        },
        {
          "internalType": "bytes32",
          "name": "_desc",
          "type": "bytes32"
        },
        {
          "internalType": "address",
          "name": "_owner",
          "type": "address"
        }
      ],
      "name": "createProduct",
      "outputs": [],
      "stateMutability": "nonpayable",
      "type": "function"
    },
    {
      "inputs": [],
      "name": "getAllProducts",
      "outputs": [
        {
          "internalType": "bytes32[]",
          "name": "",
          "type": "bytes32[]"
        },
        {
          "internalType": "bytes32[]",
          "name": "",
          "type": "bytes32[]"
        },
        {
          "internalType": "bytes32[]",
          "name": "",
          "type": "bytes32[]"
        },
        {
          "internalType": "address[]",
          "name": "",
          "type": "address[]"
        }
      ],
      "stateMutability": "view",
      "type": "function",
      "constant": true
    },
    {
      "inputs": [
        {
          "internalType": "bytes32",
          "name": "_id",
          "type": "bytes32"
        }
      ],
      "name": "getProduct",
      "outputs": [
        {
          "internalType": "bytes32",
          "name": "",
          "type": "bytes32"
        },
        {
          "internalType": "bytes32",
          "name": "",
          "type": "bytes32"
        },
        {
          "internalType": "bytes32",
          "name": "",
          "type": "bytes32"
        },
        {
          "internalType": "address",
          "name": "",
          "type": "address"
        }
      ],
      "stateMutability": "view",
      "type": "function",
      "constant": true
    },
    {
      "inputs": [
        {
          "internalType": "bytes32",
          "name": "_id",
          "type": "bytes32"
        },
        {
          "internalType": "address",
          "name": "_ownerId",
          "type": "address"
        }
      ],
      "name": "verifyFakeness",
      "outputs": [
        {
          "internalType": "bool",
          "name": "",
          "type": "bool"
        }
      ],
      "stateMutability": "view",
      "type": "function",
      "constant": true
    },
    {
      "inputs": [
        {
          "internalType": "bytes32",
          "name": "_id",
          "type": "bytes32"
        },
        {
          "internalType": "address",
          "name": "currentOwner",
          "type": "address"
        },
        {
          "internalType": "address",
          "name": "newOwner",
          "type": "address"
        }
      ],
      "name": "transferOwnership",
      "outputs": [],
      "stateMutability": "nonpayable",
      "type": "function"
    },
    {
      "inputs": [
        {
          "internalType": "address",
          "name": "user",
          "type": "address"
        },
        {
          "internalType": "enum product.Role",
          "name": "role",
          "type": "uint8"
        }
      ],
      "name": "assignRole",
      "outputs": [],
      "stateMutability": "nonpayable",
      "type": "function"
    }
  ],
  "bytecode": "0x60806040526000805534801561001457600080fd5b506000600281111561002957610028610085565b5b600360003373ffffffffffffffffffffffffffffffffffffffff1673ffffffffffffffffffffffffffffffffffffffff16815260200190815260200160002060006101000a81548160ff021916908360ff1602179055506100b4565b7f4e487b7100000000000000000000000000000000000000000000000000000000600052602160045260246000fd5b6112e5806100c36000396000f3fe608060405234801561001057600080fd5b50600436106100935760003560e01c8063790543911161006657806379054391146101245780639937464214610157578063ac25c31e14610187578063c463addd146101a3578063e0df7bb6146101d357610093565b806302ee3a521461009857806318e7ad18146100b95780633a20e9df146100d5578063630a195b14610108575b600080fd5b6100a06101f1565b6040516100b09493929190610cb5565b60405180910390f35b6100d360048036038101906100ce9190610d73565b61045a565b005b6100ef60048036038101906100ea9190610dda565b610636565b6040516100ff9493929190610e25565b60405180910390f35b610122600480360381019061011d9190610e8f565b610697565b005b61013e60048036038101906101399190610dda565b6107ac565b60405161014e9493929190610e25565b60405180910390f35b610171600480360381019061016c9190610ecf565b6107fc565b60405161017e9190610f18565b60405180910390f35b6101a1600480360381019061019c9190610f33565b61081c565b005b6101bd60048036038101906101b89190610f86565b6109f9565b6040516101ca9190610fe1565b60405180910390f35b6101db610af7565b6040516101e89190611015565b60405180910390f35b6060806060806000805467ffffffffffffffff81111561021457610213611030565b5b6040519080825280602002602001820160405280156102425781602001602082028036833780820191505090505b5090506000805467ffffffffffffffff81111561026257610261611030565b5b6040519080825280602002602001820160405280156102905781602001602082028036833780820191505090505b5090506000805467ffffffffffffffff8111156102b0576102af611030565b5b6040519080825280602002602001820160405280156102de5781602001602082028036833780820191505090505b50905060005b6000548110156103f157600060026000600184815481106103085761030761105f565b5b906000526020600020015481526020019081526020016000209050806001015485838151811061033b5761033a61105f565b5b602002602001018181525050806002015484838151811061035f5761035e61105f565b5b6020026020010181815250508060030160009054906101000a900473ffffffffffffffffffffffffffffffffffffffff168383815181106103a3576103a261105f565b5b602002602001019073ffffffffffffffffffffffffffffffffffffffff16908173ffffffffffffffffffffffffffffffffffffffff16815250505080806103e9906110bd565b9150506102e4565b5060018383838380548060200260200160405190810160405280929190818152602001828054801561044257602002820191906000526020600020905b81548152602001906001019080831161042e575b50505050509350965096509650965050505090919293565b7f175511fee10259751afcd15d9052c51a49a301d725936b6b91a7dad67ae1b9498484848460405161048f9493929190610e25565b60405180910390a1600060028111156104ab576104aa611105565b5b60ff16600360008373ffffffffffffffffffffffffffffffffffffffff1673ffffffffffffffffffffffffffffffffffffffff16815260200190815260200160002060009054906101000a900460ff1660ff161461053e576040517f08c379a000000000000000000000000000000000000000000000000000000000815260040161053590611191565b60405180910390fd5b60405180608001604052808581526020018481526020018381526020018273ffffffffffffffffffffffffffffffffffffffff168152506002600086815260200190815260200160002060008201518160000155602082015181600101556040820151816002015560608201518160030160006101000a81548173ffffffffffffffffffffffffffffffffffffffff021916908373ffffffffffffffffffffffffffffffffffffffff160217905550905050600184908060018154018082558091505060019003906000526020600020016000909190919091505560008081548092919061062b906110bd565b919050555050505050565b60008060008060006002600087815260200190815260200160002090508060000154816001015482600201548360030160009054906101000a900473ffffffffffffffffffffffffffffffffffffffff169450945094509450509193509193565b600060028111156106ab576106aa611105565b5b60ff16600360003373ffffffffffffffffffffffffffffffffffffffff1673ffffffffffffffffffffffffffffffffffffffff16815260200190815260200160002060009054906101000a900460ff1660ff161461073e576040517f08c379a0000000000000000000000000000000000000000000000000000000008152600401610735906111fd565b60405180910390fd5b80600281111561075157610750611105565b5b600360008473ffffffffffffffffffffffffffffffffffffffff1673ffffffffffffffffffffffffffffffffffffffff16815260200190815260200160002060006101000a81548160ff021916908360ff1602179055505050565b60026020528060005260406000206000915090508060000154908060010154908060020154908060030160009054906101000a900473ffffffffffffffffffffffffffffffffffffffff16905084565b60036020528060005260406000206000915054906101000a900460ff1681565b8173ffffffffffffffffffffffffffffffffffffffff166002600085815260200190815260200160002060030160009054906101000a900473ffffffffffffffffffffffffffffffffffffffff1673ffffffffffffffffffffffffffffffffffffffff1614801561096057506000600281111561089c5761089b611105565b5b60ff16600360003373ffffffffffffffffffffffffffffffffffffffff1673ffffffffffffffffffffffffffffffffffffffff16815260200190815260200160002060009054906101000a900460ff1660ff16148061095f57506001600281111561090a57610909611105565b5b60ff16600360003373ffffffffffffffffffffffffffffffffffffffff1673ffffffffffffffffffffffffffffffffffffffff16815260200190815260200160002060009054906101000a900460ff1660ff16145b5b61099f576040517f08c379a00000000000000000000000000000000000000000000000000000000081526004016109969061128f565b60405180910390fd5b806002600085815260200190815260200160002060030160006101000a81548173ffffffffffffffffffffffffffffffffffffffff021916908373ffffffffffffffffffffffffffffffffffffffff160217905550505050565b6000806000905060005b600054811015610aec57846002600060018481548110610a2657610a2561105f565b5b9060005260206000200154815260200190815260200160002060000154148015610acf57508373ffffffffffffffffffffffffffffffffffffffff166002600060018481548110610a7a57610a7961105f565b5b9060005260206000200154815260200190815260200160002060030160009054906101000a900473ffffffffffffffffffffffffffffffffffffffff1673ffffffffffffffffffffffffffffffffffffffff16145b15610ad957600191505b8080610ae4906110bd565b915050610a03565b508091505092915050565b60005481565b600081519050919050565b600082825260208201905092915050565b6000819050602082019050919050565b6000819050919050565b610b3c81610b29565b82525050565b6000610b4e8383610b33565b60208301905092915050565b6000602082019050919050565b6000610b7282610afd565b610b7c8185610b08565b9350610b8783610b19565b8060005b83811015610bb8578151610b9f8882610b42565b9750610baa83610b5a565b925050600181019050610b8b565b5085935050505092915050565b600081519050919050565b600082825260208201905092915050565b6000819050602082019050919050565b600073ffffffffffffffffffffffffffffffffffffffff82169050919050565b6000610c1c82610bf1565b9050919050565b610c2c81610c11565b82525050565b6000610c3e8383610c23565b60208301905092915050565b6000602082019050919050565b6000610c6282610bc5565b610c6c8185610bd0565b9350610c7783610be1565b8060005b83811015610ca8578151610c8f8882610c32565b9750610c9a83610c4a565b925050600181019050610c7b565b5085935050505092915050565b60006080820190508181036000830152610ccf8187610b67565b90508181036020830152610ce38186610b67565b90508181036040830152610cf78185610b67565b90508181036060830152610d0b8184610c57565b905095945050505050565b600080fd5b610d2481610b29565b8114610d2f57600080fd5b50565b600081359050610d4181610d1b565b92915050565b610d5081610c11565b8114610d5b57600080fd5b50565b600081359050610d6d81610d47565b92915050565b60008060008060808587031215610d8d57610d8c610d16565b5b6000610d9b87828801610d32565b9450506020610dac87828801610d32565b9350506040610dbd87828801610d32565b9250506060610dce87828801610d5e565b91505092959194509250565b600060208284031215610df057610def610d16565b5b6000610dfe84828501610d32565b91505092915050565b610e1081610b29565b82525050565b610e1f81610c11565b82525050565b6000608082019050610e3a6000830187610e07565b610e476020830186610e07565b610e546040830185610e07565b610e616060830184610e16565b95945050505050565b60038110610e7757600080fd5b50565b600081359050610e8981610e6a565b92915050565b60008060408385031215610ea657610ea5610d16565b5b6000610eb485828601610d5e565b9250506020610ec585828601610e7a565b9150509250929050565b600060208284031215610ee557610ee4610d16565b5b6000610ef384828501610d5e565b91505092915050565b600060ff82169050919050565b610f1281610efc565b82525050565b6000602082019050610f2d6000830184610f09565b92915050565b600080600060608486031215610f4c57610f4b610d16565b5b6000610f5a86828701610d32565b9350506020610f6b86828701610d5e565b9250506040610f7c86828701610d5e565b9150509250925092565b60008060408385031215610f9d57610f9c610d16565b5b6000610fab85828601610d32565b9250506020610fbc85828601610d5e565b9150509250929050565b60008115159050919050565b610fdb81610fc6565b82525050565b6000602082019050610ff66000830184610fd2565b92915050565b6000819050919050565b61100f81610ffc565b82525050565b600060208201905061102a6000830184611006565b92915050565b7f4e487b7100000000000000000000000000000000000000000000000000000000600052604160045260246000fd5b7f4e487b7100000000000000000000000000000000000000000000000000000000600052603260045260246000fd5b7f4e487b7100000000000000000000000000000000000000000000000000000000600052601160045260246000fd5b60006110c882610ffc565b91507fffffffffffffffffffffffffffffffffffffffffffffffffffffffffffffffff82036110fa576110f961108e565b5b600182019050919050565b7f4e487b7100000000000000000000000000000000000000000000000000000000600052602160045260246000fd5b600082825260208201905092915050565b7f4f6e6c792061646d696e2063616e2063726561746520612070726f647563742e600082015250565b600061117b602083611134565b915061118682611145565b602082019050919050565b600060208201905081810360008301526111aa8161116e565b9050919050565b7f4f6e6c792061646d696e2063616e2061737369676e20726f6c65732e00000000600082015250565b60006111e7601c83611134565b91506111f2826111b1565b602082019050919050565b60006020820190508181036000830152611216816111da565b9050919050565b7f496e76616c6964204f776e65722064657461696c73206f7220496e76616c696460008201527f20417574686f72697a6174696f6e2e0000000000000000000000000000000000602082015250565b6000611279602f83611134565b91506112848261121d565b604082019050919050565b600060208201905081810360008301526112a88161126c565b905091905056fea26469706673582212200991eb227c6aa225b87f917021bf11db23317b7b80de3bb530e1811691fff56764736f6c63430008110033",
  "immutableReferences": {},
  "source": "pragma solidity ^0.8.17;\r\n//SPDX-License-Identifier: UNLICENSED\r\n\r\ncontract product {\r\n\r\n    struct ProductStruct {\r\n        bytes32 id;\r\n        bytes32 name;\r\n        bytes32 desc;\r\n        address owner;\r\n    }\r\n\r\n    uint public productsCount  = 0;\r\n    bytes32[] productIds;\r\n\r\n\r\n\r\n    mapping(bytes32 => ProductStruct) public products;\r\n    mapping(address => uint8) public roles;\r\n    event Log(bytes32 _id, bytes32 _name, bytes32 _desc, address _owner);\r\n    enum Role { ADMIN, SELLER, CONSUMER }\r\n\r\n    constructor() {\r\n        // Assign the admin role to the address that deploys the contract\r\n        roles[msg.sender] = uint8(Role.ADMIN);\r\n    }\r\n\r\n    function createProduct(bytes32 _id, bytes32 _name, bytes32 _desc, address _owner) public {\r\n        emit Log(_id,_name,_desc,_owner);\r\n        require(roles[_owner] == uint8(Role.ADMIN), \"Only admin can create a product.\");\r\n        products[_id] = ProductStruct(_id, _name, _desc, _owner);\r\n        productIds.push(_id);\r\n        productsCount++;\r\n    }\r\n\r\n    function getAllProducts() public view returns ( bytes32[] memory,bytes32[] memory, bytes32[] memory, address[] memory) {\r\n    bytes32[] memory names = new bytes32[](productsCount);\r\n    bytes32[] memory descriptions = new bytes32[](productsCount);\r\n    address[] memory ownerIds = new address[](productsCount);\r\n\r\n       \r\n        for(uint i = 0; i < productsCount; i++) {\r\n            ProductStruct storage prod = products[productIds[i]];\r\n            names[i] = prod.name;\r\n            descriptions[i] = prod.desc;\r\n            ownerIds[i] = prod.owner;\r\n        }\r\n        return (productIds,names,descriptions,ownerIds);\r\n    }\r\n \r\n\r\n    function getProduct(bytes32 _id) public view returns (bytes32, bytes32, bytes32, address) {\r\n        ProductStruct storage Prod = products[_id];\r\n        return (Prod.id, Prod.name, Prod.desc, Prod.owner);\r\n    }\r\n\r\n    function verifyFakeness(bytes32 _id, address _ownerId) public view returns (bool) {\r\n        bool flag = false;\r\n        for(uint i =0; i < productsCount ; i ++){\r\n            if( products[productIds[i]].id == _id &&  products[productIds[i]].owner == _ownerId){\r\n               flag = true;\r\n            }\r\n        }\r\n        return flag ;\r\n    }\r\n\r\n    function transferOwnership(bytes32 _id, address currentOwner, address newOwner) public {\r\n        require(products[_id].owner == currentOwner && (roles[msg.sender] == uint8(Role.ADMIN) || roles[msg.sender] == uint8(Role.SELLER) ), \"Invalid Owner details or Invalid Authorization.\");\r\n        products[_id].owner = newOwner;\r\n    }\r\n\r\n   \r\n    function assignRole(address user, Role role) public {\r\n        require(roles[msg.sender] == uint8(Role.ADMIN), \"Only admin can assign roles.\");\r\n        roles[user] = uint8(role);\r\n    }\r\n}",
  "sourcePath": "D:\\Projects\\realdeal\\contracts\\product.sol",
  "compiler": {
    "name": "solc",
    "version": "0.8.17+commit.8df45f5f.Emscripten.clang"
  },
  "schemaVersion": "3.4.11",
  "updatedAt": "2023-02-11T23:42:58.294Z",
  "networkType": "ethereum",
  "devdoc": {
    "kind": "dev",
    "methods": {},
    "version": 1
  },
  "userdoc": {
    "kind": "user",
    "methods": {},
    "version": 1
  }
}